:1000000000000320D1010000713300002D330000F7
:100010002D3300002D3300002D3300002D33000060
:100020002D3300002D3300002D330000713300000C
:10003000713300002D3300002141000025410000F4
:100040007133000071330000713300007133000020
:100050007133000071330000713300007133000010
:100060007133000071330000713300007133000000
:1000700071330000713300007133000071330000F0
:1000800071330000713300007133000071330000E0
:1000900071330000713300007133000071330000D0
:1000A00071330000713300007133000071330000C0
:1000B00071330000713300007133000071330000B0
:1000C00071330000713300007133000071330000A0
:1000D0007133000071330000713300007133000090
:1000E0007133000071330000713300007133000080
:1000F0007133000071330000713300007133000070
:10010000713300007133000071330000713300005F
:1001100071330000C93600007133000071330000F4
:10012000713300007133000071330000713300003F
:10013000713300007133000071330000713300002F
:10014000713300007133000071330000713300001F
:10015000713300007133000071330000713300000F
:1001600071330000713300007133000071330000FF
:1001700071330000713300007133000071330000EF
:1001800071330000713300007133000071330000DF
:1001900071330000713300007133000071330000CF
:1001A00071330000713300007133000071330000BF
:1001B00071330000713300007133000071330000AF
:1001C000713300007133000071330000713300009F
:1001D0005F4B4CF2205210B5DA814DF62812DA81CD
:1001E00000BF00BF03F0C8F85A4B4FF030621A63EB
:1001F000594A9A63594ADA634FF0E0234FF4700288
:10020000C3F8882D03F5E823554A1A60554B9A78B0
:10021000110703D59A7842F008029A70524B53485E
:10022000AA221A70524BDA1C121AC11E22F00302C3
:10023000994288BF00224F4902F0A4FF4E4B4F481D
:10024000DA1C121AC11E22F00302994288BF002252
:10025000002104F057F84A494A484FF4E87202F086
:1002600091FF494B494A802103F8011B9342FBD17E
:100270004FF0E023434AC3F8082D454B8A221A70F9
:10028000A3F5805324225A70A0221A709A799207FB
:10029000FCD59A79D406FCD43E4A937903F00C033A
:1002A000082BFAD1304B60225A70DA78802AFCD1C0
:1002B000384B01221A715D225A719A799006FCD549
:1002C0009A795106FCD5234A33495164002191643F
:1002D000202119702F498B7903F00C030C2BFAD1D4
:1002E0002E4B53602E4A136913F4807303D153616C
:1002F0004FF4A85313614FF0E0232A4A5A610022B9
:100300009A6107221A61284AC3F8202D62B603F0C9
:1003100073F8234B5B69DA0705D5244803F060F8CE
:10032000234B244ADA61244B1B785B0609D5204C09
:10033000204BE2699A4204D11C4803F051F8002393
:10034000E36103F01FF804F02FF802F013FFFEE75B
:100350000020054000800440823F04000100002B83
:100360000300008500D0074000E007403007FF1F72
:100370000408FF1F28480000585DFF1F0408FF1FE6
:10038000000000000002FF1F00E400E064E400E061
:10039000005006400040064000000602C010070062
:1003A00000D003401FBF0200000020203CF475680D
:1003B00000E00340A5C3945A00F00740FFFFFFFF91
:1003C000FFFFFFFFFFFFFFFFFFFFFFFFFFFFFFFF3D
:1003D000FFFFFFFFFFFFFFFFFFFFFFFFFFFFFFFF2D
:1003E000FFFFFFFFFFFFFFFFFFFFFFFFFFFFFFFF1D
:1003F000FFFFFFFFFFFFFFFFFFFFFFFFFFFFFFFF0D
:10040000FFFFFFFFFFFFFFFFFFFFFFFFDEF9FFFF23
:100410000548064B1B1AD90F01EBA301491002D066
:10042000034B03B1184770470408FF1F0408FF1F60
:100430000000000008B5054B1BB105490548AFF3A6
:100440000080BDE80840FFF7E3BF00BF00000000E8
:100450000408FF1F2848000000207047034B18685D
:1004600010B103681B681847704700BF605AFF1F30
:10047000034B186810B103681B681847704700BF2A
:10048000645AFF1F00F500502DE9F04196464A4A94
:10049000C0F8101914681368484DB5FBF1F043F02B
:1004A000A043B5FBF0F590B04D1B04F080741360D1
:1004B0001368DE01FCD505284FF0000C22D93F4E11
:1004C00063465A1C0233B0FBF3F7192F07FB03F303
:1004D0000FD8B6FBF3F3CB1A002BB8BF5B42AB428D
:1004E00009DA1D4694460B2F06D9122F9CBF1D46D4
:1004F00094461346E5E7F6D0052FFAD80CF1010330
:10050000B0FBF3F00538142848D8B5F5967F45DCE4
:1005100000EB40002A4FDFF8A08000F140030DEB14
:1005200003050FCF6E460FC60FCF0FC60FCF0FC6F6
:1005300097E80F0007C626F8023B1B0C337015F82E
:100540003F3C15F83E2C15F8401CDB04120402F465
:10055000E02203F46013134301F00702134343F452
:10056000800343EA0C6343F48043C8F80430D8F8AE
:100570000430BEF1020F14BF23F0080343F0080358
:10058000C8F804303CB90C4A136823F08053136058
:100590001368DB01FCD410B0BDE8F081002CFAD167
:1005A000054A136823F0805313601368D901FCD403
:1005B00010B0BDE8F08100BF00400A400024F40004
:1005C0001045000000F500502DE9F04196464A4ADA
:1005D000C0F8101914681368484DB5FBF1F043F0EA
:1005E000A043B5FBF0F590B04D1B04F08074136090
:1005F0001368DE01FCD505284FF0000C22D93F4ED0
:1006000063465A1C0233B0FBF3F7192F07FB03F3C1
:100610000FD8B6FBF3F3CB1A002BB8BF5B42AB424B
:1006200009DA1D4694460B2F06D9122F9CBF1D4692
:1006300094461346E5E7F6D0052FFAD80CF10103EE
:10064000B0FBF3F00538142848D8B5F5967F45DCA3
:1006500000EB40002A4FDFF8A08000F140030DEBD3
:1006600003050FCF6E460FC60FCF0FC60FCF0FC6B5
:1006700097E80F0007C626F8023B1B0C337015F8ED
:100680003F3C15F83E2C15F8401CDB04120402F424
:10069000E02203F46013134301F00702134343F411
:1006A000800343EA0C6343F48043C8F80430D8F86D
:1006B0000430BEF1020F14BF23F0080343F0080317
:1006C000C8F804303CB90C4A136823F08053136017
:1006D0001368DB01FCD410B0BDE8F081002CFAD126
:1006E000054A136823F0805313601368D901FCD4C2
:1006F00010B0BDE8F08100BF004002400024F400CB
:100700001045000000207047002070470820704707
:10071000002070470020704708207047034B19786D
:100720000D2081F00101197002F0E2BE3207FF1FB7
:1007300010490B68486B0A68496B02F07F02C1F3ED
:10074000036101320431B2EB410F10D303F07F0398
:10075000C0F30360053B0130A3EB4003DBB2054A65
:10076000106800F07F000130C01AC0B2704700234B
:10077000F5E700BF00400A4010490B68486B0A6863
:10078000496B02F07F02C1F3036101320431B2EB25
:10079000410F10D303F07F03C0F30360053B01302A
:1007A000A3EB4003DBB2054A106800F07F00013084
:1007B000C01AC0B270470023F5E700BF00400240F6
:1007C000624A2DE9F0411468136843F0A04304F035
:1007D000807413601368DD01FCD51168DFF874C103
:1007E0005B4F5A4E002321F0005111609362126852
:1007F000194603EB0C02DD191201AD00D1609160C6
:100800005160116029603268013302F07F02DBB26F
:1008100001329342EDD3B1643161336B336333689A
:1008200000284BD1DFF82C81484E494F054619E08E
:10083000336803F07F030133B0EB930F34BF4FF005
:1008400080634FF08C631360736BC3F300439B07AB
:100850000B603368013503F07F03EDB201339D4235
:10086000284620D2336803F07F030133E91905EBF2
:100870000802B0EB530F4FEA81014FEA0212D7D3BF
:100880004FF00063136033689A0003D5FFF774FFDD
:10089000A842DED801231F2D03FA05F34CD8B26A13
:1008A0001343B362D5E73CB9284A136823F0805359
:1008B00013601368DB01FCD4BDE8F08143F0005302
:1008C0003360356815F000553ED0FFF755FF3368AB
:1008D00003F07F03013383420546E4D91D4FDFF85F
:1008E0006C804FF000660DE0D8F828201343C8F85C
:1008F0002830D8F80030013503F07F03EDB2013322
:100900009D42D0D2EB191B011E60D8F8003099002F
:1009100003D5FFF731FF8542EBD301231F2D03FAE7
:1009200005F3E1D9D8F824200123A5F120018B405B
:100930001343C8F82430DCE7726AA5F120010123D3
:100940008B401343736284E73368C7E7004002407B
:100950002092001008240004624A2DE9F041146836
:10096000136843F0A04304F0807413601368DD0142
:10097000FCD51168DFF874C15B4F5A4E002321F09B
:100980000051116093621268194603EB0C02DD19E5
:100990001201AD00D1609160516011602960326830
:1009A000013302F07F02DBB201329342EDD3B16436
:1009B0003161336B3363336800284BD1DFF82C810E
:1009C000484E494F054619E0336803F07F03013371
:1009D000B0EB930F34BF4FF080634FF08C63136024
:1009E000736BC3F300439B070B603368013503F05F
:1009F0007F03EDB201339D42284620D2336803F0D5
:100A00007F030133E91905EB0802B0EB530F4FEAFE
:100A100081014FEA0212D7D34FF0006313603368AD
:100A20009A0003D5FFF784FEA842DED801231F2DCC
:100A300003FA05F34CD8B26A1343B362D5E73CB965
:100A4000284A136823F0805313601368DB01FCD439
:100A5000BDE8F08143F000533360356815F0005570
:100A60003ED0FFF765FE336803F07F030133834216
:100A70000546E4D91D4FDFF86C804FF000660DE0AD
:100A8000D8F828201343C8F82830D8F800300135AA
:100A900003F07F03EDB201339D42D0D2EB191B016D
:100AA0001E60D8F80030990003D5FFF741FE85425B
:100AB000EBD301231F2D03FA05F3E1D9D8F8242045
:100AC0000123A5F120018B401343C8F82430DCE753
:100AD000726AA5F1200101238B401343736284E7FE
:100AE0003368C7E700400A402092021008A40004BF
:100AF00038B5002300F5005543608360C36003618F
:100B0000414A5E210123C5F80C1985F8153913787F
:100B10003E4943F0800313700A6B3D4B42F01002D4
:100B20000A635A6801F5A0414FF4007022F40052A4
:100B30005A60086648661A683649374822F000420B
:100B40001A601A68C1F8B80142F0A0421A601A6827
:100B5000D201FCD559682E4A41F008015960196844
:100B600041F0804119601368DC02FCD41368284905
:100B700043F0007313600B689801FCD4244C236885
:100B8000DA01FCD5236843F400332360236843F47F
:100B900080332360236843F480532360236843F445
:100BA00000532360236843F480032360236843F4E5
:100BB00000232360236823F408432360636B43F41A
:100BC000E0236363236843F400132360236843F046
:100BD000806323600020FFF7BFFE23680C4A23F0E8
:100BE000805323601368DB01FCD4D5F80C2953092A
:100BF00003F13823403301219B0002F01F0201FA68
:100C000002F21A6038BD00BF005006400080044068
:100C100000400A400002FF1F7104000038B500F5D3
:100C200000550023614943604B228360C360036128
:100C3000C5F80C2985F815390A785D4842F080021C
:100C40000A70C26BA1F5822142F01002C2634A68A9
:100C5000584822F400524A60574A5849C2F86C1169
:100C60000278002A40F08480554B9A6CB2F5007FE0
:100C700004BF00229A64534B4FF400721A63524B24
:100C80001A78002A00F085804E4A516B00297FD0E7
:100C900000211970536BB3F5007F494B08BF5163B6
:100CA0004FF40072DA64494A136823F0004313607A
:100CB000136843F0A04313601368DC01FCD553684C
:100CC000424943F008035360136843F080431360C4
:100CD0000B68D802FCD40B683C4A43F000730B60ED
:100CE00013689901FCD4394C2368DA01FCD52368D8
:100CF00043F400332360236843F480332360236884
:100D000043F480532360236843F400532360236833
:100D100043F480032360236843F4002323602368A3
:100D200023F408432360636B43F4E0236363236885
:100D300043F400132360236843F0806323600020A2
:100D4000FFF73EFD2368214A23F080532360136898
:100D5000DB01FCD4D5F80C29530903F138234033C7
:100D600001219B0002F01F0201FA02F21A6038BD55
:100D7000144A116B09B9017076E7116B0370B1F574
:100D8000007F08BF13630E4B4FF400729A6476E73E
:100D900019700B4BDA6CB2F5007F04BF0022DA64E5
:100DA000084B4FF400725A637DE700BF00500640C5
:100DB000008004403107FF1F0002FF1F5D04000098
:100DC00000A00440009004403007FF1F0040024094
:100DD00070B501210D2002F0B5FB01210D2002F0BC
:100DE00087FB0121062002F0ADFB0021062002F066
:100DF0007FFB444C4448FFF77BFE444942480022B5
:100E0000FFF740FB236843F0A04323602368DD0124
:100E1000FCD500202568FFF79FFD236B2363236823
:100E200023F07F0323602368A80043F00F032360AF
:100E300064D4344C236823F0805323602368D901A1
:100E4000FCD40120FFF788FD23689A000AD5A36A25
:100E50009B0607D4A36A23F0FF03A362A36A43F0AF
:100E60002003A3622A4B2B482B4C2C4DC3F804586B
:100E7000FFF7D4FE254927480022FFF7A3FB23688C
:100E800043F0A04323602368DE01FCD500202668E0
:100E9000FFF796FC236B2363236823F07F03236013
:100EA0002368B00043F00F03236023D41A4C236857
:100EB00023F0805323602368D901FCD40120FFF77D
:100EC0007FFC23689A000AD5A36A9B0607D4A36A0D
:100ED00023F0FF03A362A36A43F02003A362104B35
:100EE0001048114AC0F804580121D9710821D9725B
:100EF0001A6070BD0120FFF763FCD7E70120FFF700
:100F00002BFD96E700400A403C31FF1F90D00300C4
:100F10003C51FF1F2408FF1F004002401D07000036
:100F20003807FF1F2428FF1F130DF11910B50B7888
:100F3000632B044682B0104613D003F51C6304EB08
:100F400083035B6813B101929847019804F500543C
:100F5000D4F804381BB102B0BDE81040184702B005
:100F600010BD04F50054D4F80437002BF0D00192E2
:100F700098470198ECE700BF1F2910B41B4823D8FD
:100F8000046B01238B4023430363194BD0790B443B
:100F90001B014FF000611960F8B11068117A20F060
:100FA00060400905586041F4C001D0685DF8044B09
:100FB00000BA9860106900BAD860D27A41EA024259
:100FC00042F040621A607047C46AA1F1200C01230C
:100FD00003FA0CF32343C362D7E714680548117A78
:100FE00000EA844058600905DFE700BF00400A407E
:100FF00008A400040000FC1F2DE9F04300F5005791
:101000008FB097F80037044613B9012387F80037EB
:10101000238B9BB2002B4FD1D7F80C29530903F136
:10102000382360339B0002F01F02012101FA02F213
:1010300004F580561A60B6F81E3B9BB223B3B6F88F
:101040001A1B1A2301F00F0103FB014101F5D951CD
:101050001231182208A808AD02F094F80FCD0DF156
:10106000080CACE80F0095E803008CE803009DF93C
:101070001C104B1C4AD0534B0B441B011B68C3F381
:101080000363082B00F08180D7F80C29530903F182
:10109000382340339B00012102F01F0201FA02F2C3
:1010A0001A60238BB6F81E0B9BB280B2002140EA77
:1010B00003300FB0BDE8F083A18A1A23C9B203FB45
:1010C0000141182201F58E7108A802F05BF8A38A8D
:1010D0000133C3F30803A382238B9BB21BB1238B81
:1010E000013B9BB2238308AD0FCD02AE0FC695E83E
:1010F000030086E8030002AA9DF81C308DF8073033
:101100000DF107012046FFF711FF85E7DFF8B880F2
:10111000D8F8005015F0005550D0FFF709FBD8F86B
:10112000003003F07F03013383420546ACD9DFF87A
:101130009490DFF8948008E0D8F80030013503F08F
:101140007F03EDB201339D429ED205EB09031B01E3
:101150001B68C3F30363082BEED102AA294620467D
:10116000FFF70AFFB6F81A3B013303F01F03A6F896
:101170001A3BB6F81E3B9BB2002BDDD0B6F81E3BE7
:10118000013B9BB2A6F81E3BD6E702AAC9B2204695
:10119000FFF7F2FEB6F81A3B013303F01F03A6F87F
:1011A0001A3BB6F81E3B9BB2002B3FF46DAFB6F86E
:1011B0001E3B013B9BB2A6F81E3B65E7D8F800300A
:1011C000B5E700BF08A4000400400A4010B50B7842
:1011D000632B044682B0104613D003F51C6304EB66
:1011E00083035B6813B101929847019804F500549A
:1011F000D4F804381BB102B0BDE81040184702B063
:1012000010BD04F50054D4F80437002BF0D001923F
:1012100098470198ECE700BF1F2910B41B4823D85A
:10122000046B01238B4023430363194BD0790B4498
:101230001B014FF000611960F8B11068117A20F0BD
:1012400060400905586041F4C001D0685DF8044B66
:1012500000BA9860106900BAD860D27A41EA0242B6
:1012600042F040621A607047C46AA1F1200C012369
:1012700003FA0CF32343C362D7E714680548117AD5
:1012800000EA844058600905DFE700BF00400240E3
:10129000082400040000FC1F2DE9F04300F500576E
:1012A0008FB097F80037044613B9012387F8003749
:1012B000238B9BB2002B4FD1D7F80C29530903F194
:1012C000382360339B0002F01F02012101FA02F271
:1012D00004F580561A60B6F81E3B9BB223B3B6F8ED
:1012E0001A1B1A2301F00F0103FB014101F5D9512B
:1012F0001231182208A808AD01F044FF0FCD0DF1FE
:10130000080CACE80F0095E803008CE803009DF999
:101310001C104B1C4AD0534B0B441B011B68C3F3DE
:101320000363082B00F08180D7F80C29530903F1DF
:10133000382340339B00012102F01F0201FA02F220
:101340001A60238BB6F81E0B9BB280B2002140EAD4
:1013500003300FB0BDE8F083A18A1A23C9B203FBA2
:101360000141182201F58E7108A801F00BFFA38A34
:101370000133C3F30803A382238B9BB21BB1238BDE
:10138000013B9BB2238308AD0FCD02AE0FC695E89B
:10139000030086E8030002AA9DF81C308DF8073090
:1013A0000DF107012046FFF711FF85E7DFF8B88050
:1013B000D8F8005015F0005550D0FFF7DDF9D8F8F7
:1013C000003003F07F03013383420546ACD9DFF8D8
:1013D0009490DFF8948008E0D8F80030013503F0ED
:1013E0007F03EDB201339D429ED205EB09031B0141
:1013F0001B68C3F30363082BEED102AA29462046DB
:10140000FFF70AFFB6F81A3B013303F01F03A6F8F3
:101410001A3BB6F81E3B9BB2002BDDD0B6F81E3B44
:10142000013B9BB2A6F81E3BD6E702AAC9B22046F2
:10143000FFF7F2FEB6F81A3B013303F01F03A6F8DC
:101440001A3BB6F81E3B9BB2002B3FF46DAFB6F8CB
:101450001E3B013B9BB2A6F81E3B65E7D8F8003067
:10146000B5E700BF082400040040024043884FF065
:101470001A0C03F00F030CFB030310B50446002005
:101480009875638803F00F030CFB0343DA756088DB
:1014900000F00F000CFB0040183002F0B7FE62882D
:1014A00023889BB292B283F010039A4204D123881E
:1014B000013303F01F0323806388013303F01F030C
:1014C0006380A3889BB20F2B03D8A38801339BB200
:1014D000A38010BDF0B58B7D4D4E8DB00D460446FA
:1014E000002B4BD1336813F0005C25D0FFF744F993
:1014F000336803F07F030133984284461ED2454986
:10150000434807E0036803F07F035FFA82FC01337E
:101510009C4513D20CEB01031B010CF101021B686B
:10152000C3F30363082BEDD120462A466146FFF73B
:1015300073FE01200DB0F0BD3368E0E70FCDEC463F
:10154000ACE80F0095E803008CE803004FF0FF0EB5
:101550008DF814E06F460FCF06AE0FC69CE803006F
:1015600086E80300182204F5D8500DEB02011A306A
:10157000FFF77CFF4FF0FF300DB0F0BD306810F08A
:10158000005042D0FFF7F8F8336803F07F030133CF
:10159000834229D91F4E1E4F05E03B6803F07F03AD
:1015A0000133984220D283191B01411C1A68120191
:1015B0008446C8B2F1D51B68C3F30363082B1BD064
:1015C0000FCD6E460FC695E8030086E80300EE4691
:1015D0008DF814C0BEE80F0006AF0FC796E80300F1
:1015E000182287E80300BEE70B4B1B68C3F30363B5
:1015F000082B4FF0FF3CE3D120462A465FFA8CF1DE
:10160000FFF70AFE01200DB0F0BD3368C2E700BF4E
:10161000004002400824000470400240F0B58B7D79
:101620004D4E8DB00D460446002B4BD1336813F060
:10163000005C25D0FFF77CF8336803F07F030133AB
:10164000984284461ED24549434807E0036803F0A8
:101650007F035FFA82FC01339C4513D20CEB01033C
:101660001B010CF101021B68C3F30363082BEDD1CE
:1016700020462A466146FFF77FFC01200DB0F0BDF1
:101680003368E0E70FCDEC46ACE80F0095E80300C7
:101690008CE803004FF0FF0E8DF814E06F460FCF7B
:1016A00006AE0FC69CE8030086E80300182204F586
:1016B000D8500DEB02011A30FFF7D8FE4FF0FF3083
:1016C0000DB0F0BD306810F0005042D0FFF730F898
:1016D000336803F07F030133834229D91F4E1E4F25
:1016E00005E03B6803F07F030133984220D2831961
:1016F0001B01411C1A6812018446C8B2F1D51B684F
:10170000C3F30363082B1BD00FCD6E460FC695E8BD
:10171000030086E80300EE468DF814C0BEE80F0013
:1017200006AF0FC796E80300182287E80300BEE75C
:101730000B4B1B68C3F30363082B4FF0FF3CE3D153
:1017400020462A465FFA8CF1FFF716FC01200DB007
:10175000F0BD3368C2E700BF00400A4008A400049F
:1017600070400A40F0B51220514C524D524E83B099
:1017700001F08EFC2368306098422B68C8BF20605F
:1017800098424E4BB8BF28601B68984220DAD3F1CC
:10179000980200F08180C01A02EBD27341F25041EE
:1017A0005B1001FB003303FB02F7002F93FBF2F108
:1017B00079DB41F2D83707FB103302FB03F0002836
:1017C00093FBF2F36CDB8033DBB23D4A11602BE01C
:1017D000B3F50A715DD001EBD172A0F50A77521012
:1017E00041F2504C0CFB072202FB01F7002F92FB49
:1017F000F1F2A2F5A252ACBF103A113AD3F50A7138
:1018000053D0C01A01EBD173A0EB00105B10C3EBF7
:10181000C00303FB01F0002893FBF1F3B4BF803356
:101820008133DBB226490A60264F27483B70FFF719
:10183000E3FB2648FFF730FD2549264A0B68009355
:10184000009B10681B1A632B01D803B0F0BD0B6816
:1018500001932368204C2868E373204D316861733D
:101860001B1223740312A3742B783E78237309127E
:101870000133A173607421462B70E674019B1248FA
:101880001360FFF7CBFE21461048FFF723FE03B09D
:10189000F0BD134A4423C5E740F62821BC2394E752
:1018A0007F33DBB291E7013983E74423BAE700BF16
:1018B000585AFF1F5C5AFF1F745AFF1F3407FF1F3F
:1018C000705AFF1F545AFF1F3C31FF1F2408FF1F8F
:1018D000805AFF1F6C5AFF1F3807FF1F685AFF1FEF
:1018E000D8F5FFFF00F58053D3F8003EDB006BD541
:1018F000384B2DE9F04F5F6BC7F30367FF00002201
:1019000041F6146B083741F6046941F6086A07E0AE
:101910001D686D0F052D34D00132D3B29F4255D9C9
:1019200002EB420E00EBCE0404F5F0531D686D0F80
:10193000012D0ED01D686D0F022DE9D154F809302C
:101940008B42E9D854F80A308B42E5D30120BDE838
:10195000F08F1C6814F4607FDED04FEA4E0E002436
:1019600004E01D68C5F3C215AC42D5D201340EEBBC
:10197000040505F5F065E4B250F825508D42F0D12C
:10198000E4E71D6815F4607FC6D05C444FEA4E0E54
:101990004FF0010C05E01D68C5F3C2150135AC45DB
:1019A000BAD20EEB0C0505F5F065266850F8255007
:1019B000D4F800800E4005EA08050CF1010CAE4297
:1019C0005FFA8CFCE7D1C1E7012070470020BDE839
:1019D000F08F00BF0040024001EB410170B500EB09
:1019E000C10505F5045EDEF80030DB0028D5DEF821
:1019F00000305B0F012B0BD0DEF800305B0F022BA9
:101A000042D0DEF800305B0F052B1BD0002070BDEC
:101A1000DEF8004014F4607FF8D000234D0005E0AC
:101A2000DEF80010C1F3C21C6345EFD2013305EBB1
:101A3000030C0CF5046CDBB250F82C409442EFD14F
:101A4000012070BDDEF8004014F4607FDED005F5A3
:101A5000045514354900012307E0DEF80040C4F3C3
:101A6000C21C0CF1010C6345D0D22C6804EA020CB4
:101A7000CC1804F50464013350F824402E68344037
:101A8000A445DBB2E9D1DBE742F20413EB58934201
:101A9000BCD842F20813E858904234BF002001201D
:101AA00070BD00BF83889BB20F2B03D8838801339E
:101AB0009BB283804288B0F802C0038802F00F0214
:101AC0009BB202321FFA8CFC83F010039C4540F855
:101AD000221004D10388013303F01F0303804388DD
:101AE000013303F01F034380704700BF83889BB21C
:101AF0000F2B03D8838801339BB283804288B0F8D0
:101B000002C0038802F00F029BB200EB42021FFAF0
:101B10008CFC83F010039C45D18004D103880133F1
:101B200003F01F0303804388013303F01F03438046
:101B3000704700BF00F58053D3F8003EDB006BD543
:101B4000384B2DE9F04F5F6BC7F30367FF000022AE
:101B500041F6146B083741F6046941F6086A07E05C
:101B60001D686D0F052D34D00132D3B29F4255D977
:101B700002EB420E00EBCE0404F5F0531D686D0F2E
:101B8000012D0ED01D686D0F022DE9D154F80930DA
:101B90008B42E9D854F80A308B42E5D30120BDE8E6
:101BA000F08F1C6814F4607FDED04FEA4E0E0024E4
:101BB00004E01D68C5F3C215AC42D5D201340EEB6A
:101BC000040505F5F065E4B250F825508D42F0D1DA
:101BD000E4E71D6815F4607FC6D05C444FEA4E0E02
:101BE0004FF0010C05E01D68C5F3C2150135AC4589
:101BF000BAD20EEB0C0505F5F065266850F82550B5
:101C0000D4F800800E4005EA08050CF1010CAE4244
:101C10005FFA8CFCE7D1C1E7012070470020BDE8E6
:101C2000F08F00BF00400A4001EB410170B500EBAE
:101C3000C10505F5045EDEF80030DB0028D5DEF8CE
:101C400000305B0F012B0BD0DEF800305B0F022B56
:101C500042D0DEF800305B0F052B1BD0002070BD9A
:101C6000DEF8004014F4607FF8D000234D0005E05A
:101C7000DEF80010C1F3C21C6345EFD2013305EB5F
:101C8000030C0CF5046CDBB250F82C409442EFD1FD
:101C9000012070BDDEF8004014F4607FDED005F551
:101CA000045514354900012307E0DEF80040C4F371
:101CB000C21C0CF1010C6345D0D22C6804EA020C62
:101CC000CC1804F50464013350F824402E683440E5
:101CD000A445DBB2E9D1DBE742F20413EB589342AF
:101CE000BCD842F20813E858904234BF00200120CB
:101CF00070BD00BF43884FF01A0CDBB20CFB03032E
:101D000010B50446002083F806016388DBB20CFBA3
:101D1000034383F807216088C0B20CFB004000F544
:101D2000847002F073FA628823889BB292B283F4C3
:101D300080739A4204D123880133C3F308032380BC
:101D400063880133C3F308036380A3889BB2FF2B2E
:101D500003D8A38801339BB2A38010BD2DE9F04FB7
:101D60008C460F460646054600F11008BCE80F00F9
:101D70008DB06C460FC49CE8030084E80300DFF8D4
:101D800094A04FF0010955F8044F5CB19DF914205F
:101D9000A36809FA02F1194220D02368D3F800B0F1
:101DA000D34516D14545EED106F5005393F80037DB
:101DB00023B3182239460DEB020001F0E3F9182293
:101DC0000DEB020106F11400FFF794FF0DB0BDE822
:101DD000F08F9DF8153069462046D847237C002BAC
:101DE000E0D02368D3F800B09DF81530D345D9D0A2
:101DF00020464FF0FF326946D847D3E73B7D8DF848
:101E000018303A4606A93046FFF7E0F90DB0BDE8B4
:101E1000F08F00BF5904000000F5005393F801371C
:101E2000002B00F0DB802DE9F04F0F4605460E46F3
:101E30000FCF89B002AC0FC497E8030084E8030019
:101E4000DFF850C2DCF800309B0052D5DCF83430AB
:101E5000C3F3036A00244FEACA0A0AF1080A2246B9
:101E60004FF063090CE05B0F022B3B6800F09A8097
:101E70005B0F052B00F0DD800134E2B2924538D9CA
:101E800096F91430632B34D004EB440805EBC80BEF
:101E90000BF5F0573B6813F0604FEDD03B685B0FDC
:101EA000012B3B68DFD1F279C3F300439A42E3D1BF
:101EB0003B6813F4607FDFD04FEA480B002306E055
:101EC0003A685FFA88F3C2F3C2129342D4D203F1A4
:101ED00001080BEB080303F5F063029A55F8233071
:101EE0009A42EDD102A928468DF81C90FFF736FFE3
:101EF000E6E7684F00238DF80E303C6814F000547C
:101F00003FD0FEF739FC3B6803F07F030133834287
:101F1000044633D9DFF87C9142F2041742F20818E4
:101F200096F91430A34220D004EB440105EBC10222
:101F300002F5045ADAF8003013F0604F15D0DAF8E1
:101F40000030F079C3F3C06398420ED1DAF8003064
:101F50005B0F012BDAF8003041D05B0F022B12D05F
:101F6000DAF800305B0F052B5BD0D9F80030013474
:101F700003F07F03E4B201339C42D1D309B0BDE842
:101F8000F08F3B68C6E7D159029B8B42EDD352F8E4
:101F900008209342E9D802A928468DF81C40FFF793
:101FA000DDFEE2E7F279C3F300439A427FF464AFC7
:101FB00041F604635BF80320029B9342FFF45CAF9D
:101FC00041F608625BF8022093423FF655AF02A942
:101FD00028468DF81C90FFF7C1FE4DE7704713F4BB
:101FE000607FC2D04A00002307E0DAF800105FFAF1
:101FF0008BF3C1F3C2118B42B7D203F1010B02EB99
:102000000B0303F50463029955F823309942ECD190
:1020100002A9284600928DF81C40FFF79FFE009A07
:10202000E3E7029A21462846FFF7D6FC00289CD019
:10203000B1E73B6813F4607F3FF41EAF0BF5F0533C
:10204000143301270AE00BF5F05101370968C1F399
:10205000C211FFB201318F42BFF40EAF07EB48014E
:1020600001F5F061186855F821E00299D3F800C035
:1020700008400EEA0C018842E5D102A928460193E6
:102080008DF80E2000928DF81C90FFF767FEDDE9B9
:102090000023D8E7004002402DE9F04FB94DBA4F78
:1020A00081460FCD97B004AC0FC495E8030084E8D7
:1020B0000300B96A386B3B68019013F400434FF09A
:1020C00000068B4603D13A68940000F1EB80AE4DD8
:1020D000019B2C6843F00103B3FA83F3C3F120039F
:1020E00014F000545FFA83FA00F04F82FEF744FBCD
:1020F0002B6803F07F0301338342044640F29E8045
:10210000824540F29B80671CDFF87C82FDB216E0BE
:10211000062900F0AD80042900F03E81082900F076
:10212000D781D8F8003003F07F030133AB42FCB213
:1021300040F28480A24505F101057FD9671CC4F1F6
:102140002002A4F1200306FA02F22BFA04F126FA87
:1021500003F311431943C907E3D50199E140114342
:102160001943C907DDD5894BE3181B011A68C2F36F
:1021700003610229CCD102F400115868002914BF70
:102180004FF0010C4FF0000C20F060408DF817C0AC
:102190007FD1800C0490ADF81420C2F303428DF877
:1021A0001B2009F500528DF8244092F815298DF86E
:1021B00025209A688DF81F209A68120A8DF81E2033
:1021C0009A68120C8DF81D209A68120E8DF81C204A
:1021D000DA688DF82320DA68120A8DF82220DA688E
:1021E000120C8DF82120DA6800294FEA12628DF86E
:1021F000202014BF4FF08C624FF080621A60D8F834
:102200000830D8F830200123A3401343C8F83030F9
:10221000049A21464846FFF7DFFB002840F053812F
:1022200004A94846FFF7F8FD04A8AFF3008004A80E
:10223000AFF3008004A8AFF3008072E7524E544D14
:10224000346A2B6884EA0302524B13403BB109F510
:102250008053B3F8D43C9BB20F2B40F298814A4A8A
:10226000136A23431362BFF34F8F17B0BDE8F08F9B
:1022700002F400115868002914BF4FF0010C4FF010
:10228000000C20F060408DF817C005D1800C049040
:1022900004E0049001217EE70490012101208DF8E3
:1022A000190078E78A067FF512AF85067FF50FAF34
:1022B000D7F88020ADF81420C2F303418DF81B102D
:1022C000D7F88410304C02F40010B04221F0604185
:1022D000C2F300508DF818004FEAD25212BF01200D
:1022E0003046890C8DF817008DF81620049108A847
:1022F0000022D4F88810D1400832202A00F8011DAD
:10230000F7D1214809A9D0F88C20DA400833202BD6
:1023100001F8012DF7D109F5005393F815398DF81F
:10232000253063238DF824308368036B43F020034A
:102330000363019B5C0603D5036B43F04003036317
:10234000019B180604D5104A136B43F080031363F6
:1023500004A94846FFF760FD04A8AFF3008004A875
:10236000AFF3008004A8AFF3008004994846FFF75C
:10237000B9FA00283FF4ABAE04A94846FFF7EEFCDB
:10238000A5E600BF504500000040024008240004BC
:102390002008FF1FBFFF070002F400110029596841
:1023A000ADF81420C2F303428DF81B2009F500524A
:1023B00014BF012000208DF8170092F815098DF840
:1023C00024408DF8250098688DF81F0098684FEA22
:1023D00010208DF81E0098684FEA10408DF81D00FF
:1023E00098684FEA10608DF81C00D8688DF82300BB
:1023F000D8684FEA10208DF82200D86821F060419B
:1024000008BF890C000C04918DF8210004F602210C
:10241000D86859F82110000E8DF8200029B104A8C1
:10242000039202938847039A029BD2F808291AB1B3
:1024300004A802939047029B09F580520292B2F8D9
:102440001E2B92B2002A00F0B180029BB3F81A1B37
:102450001A2301F00F0103FB019101F5D95112314B
:10246000182210A800F08EFE0AAB0DF1400C9E461B
:102470000393BCE80F00AEE80F009CE803008EE871
:1024800003009DF93C305A1C00F09B809C427FF475
:1024900048AE039AE1B24846FEF7BEFE029AB2F891
:1024A0001A3B013303F01F03A2F81A3BB2F81E3B9C
:1024B0009BB2002B3FF435AEB2F81E3B013B9BB202
:1024C000A2F81E3B2DE604A94846FFF747FCA7E605
:1024D00002F4001100295968ADF81420C2F3034238
:1024E0008DF81B2009F5005214BF012000208DF843
:1024F000170092F815098DF824408DF8250098688A
:102500008DF81F0098684FEA10208DF81E0098681B
:102510004FEA10408DF81D0098684FEA10608DF862
:102520001C00D8688DF82300D8684FEA10208DF879
:102530002200D86821F0604108BF890C000C04918A
:102540008DF8210004F60221DB6859F821101B0EDA
:102550008DF8203019B104A802928847029AD2F867
:1025600008390BB104A8984709F580530293B3F8D2
:102570001E3B9BB2002B7FF468AFD8F830200123BC
:10258000A3401343C8F83030CBE52B68BBE509F511
:10259000E65021461030FFF785FAF16909F5EC5055
:1025A00089B21830FFF7A2FA2C6058E6D8F830103C
:1025B0000122A2400A43C8F830204FF000621A609E
:1025C000AFE5039A214666E72DE9F04F8C460F46AA
:1025D0000646054600F11008BCE80F008DB06C46B9
:1025E0000FC49CE8030084E80300DFF894A04FF0D8
:1025F000010955F8044F5CB19DF91420A36809FA4C
:1026000002F1194220D02368D3F800B0D34516D187
:102610004545EED106F5005393F8003723B3182251
:1026200039460DEB020000F0ADFD18220DEB020162
:1026300006F11400FFF75EFB0DB0BDE8F08F9DF8CA
:10264000153069462046D847237C002BE0D023680C
:10265000D3F800B09DF81530D345D9D020464FF0BF
:10266000FF326946D847D3E73B7D8DF818303A46AC
:1026700006A93046FEF75AFC0DB0BDE8F08F00BF4A
:102680005904000000F5005393F80137002B00F0C7
:10269000DB802DE9F04F0F4605460E460FCF89B07F
:1026A00002AC0FC497E8030084E80300DFF850C2CF
:1026B000DCF800309B0052D5DCF83430C3F3036AF9
:1026C00000244FEACA0A0AF1080A22464FF06309B9
:1026D0000CE05B0F022B3B6800F09A805B0F052B30
:1026E00000F0DD800134E2B2924538D996F9143019
:1026F000632B34D004EB440805EBC80B0BF5F05703
:102700003B6813F0604FEDD03B685B0F012B3B68DB
:10271000DFD1F279C3F300439A42E3D13B6813F46B
:10272000607FDFD04FEA480B002306E03A685FFA8B
:1027300088F3C2F3C2129342D4D203F101080BEB27
:10274000080303F5F063029A55F823309A42EDD15D
:1027500002A928468DF81C90FFF736FFE6E7684F80
:1027600000238DF80E303C6814F000543FD0FDF784
:10277000DFFF3B6803F07F0301338342044633D914
:10278000DFF87C9142F2041742F2081896F91430EF
:10279000A34220D004EB440105EBC10202F5045A28
:1027A000DAF8003013F0604F15D0DAF80030F07925
:1027B000C3F3C06398420ED1DAF800305B0F012BEF
:1027C000DAF8003041D05B0F022B12D0DAF800307B
:1027D0005B0F052B5BD0D9F80030013403F07F0389
:1027E000E4B201339C42D1D309B0BDE8F08F3B681D
:1027F000C6E7D159029B8B42EDD352F80820934291
:10280000E9D802A928468DF81C40FFF7DDFEE2E773
:10281000F279C3F300439A427FF464AF41F6046354
:102820005BF80320029B9342FFF45CAF41F6086221
:102830005BF8022093423FF655AF02A928468DF877
:102840001C90FFF7C1FE4DE7704713F4607FC2D0C4
:102850004A00002307E0DAF800105FFA8BF3C1F3B7
:10286000C2118B42B7D203F1010B02EB0B0303F54C
:102870000463029955F823309942ECD102A9284605
:1028800000928DF81C40FFF79FFE009AE3E7029A42
:1028900021462846FFF7C8F900289CD0B1E73B68DD
:1028A00013F4607F3FF41EAF0BF5F0531433012790
:1028B0000AE00BF5F05101370968C1F3C211FFB20C
:1028C00001318F42BFF40EAF07EB480101F5F06113
:1028D000186855F821E00299D3F800C008400EEAC4
:1028E0000C018842E5D102A9284601938DF80E20FB
:1028F00000928DF81C90FFF767FEDDE90023D8E712
:1029000000400A402DE9F04FB94DBA4F81460FCD36
:1029100097B004AC0FC495E8030084E80300B96ADB
:10292000386B3B68019013F400434FF000068B4670
:1029300003D13A68940000F1EB80AE4D019B2C6806
:1029400043F00103B3FA83F3C3F1200314F00054FE
:102950005FFA83FA00F04F82FDF7EAFE2B6803F07E
:102960007F0301338342044640F29E80824540F259
:102970009B80671CDFF87C82FDB216E0062900F020
:10298000AD80042900F03E81082900F0D781D8F8F5
:10299000003003F07F030133AB42FCB240F284808D
:1029A000A24505F101057FD9671CC4F12002A4F1FD
:1029B000200306FA02F22BFA04F126FA03F311437C
:1029C0001943C907E3D50199E14011431943C907E8
:1029D000DDD5894BE3181B011A68C2F30361022994
:1029E000CCD102F400115868002914BF4FF0010C3B
:1029F0004FF0000C20F060408DF817C07FD1800CA4
:102A00000490ADF81420C2F303428DF81B2009F5A1
:102A100000528DF8244092F815298DF825209A68E7
:102A20008DF81F209A68120A8DF81E209A68120CE1
:102A30008DF81D209A68120E8DF81C20DA688DF82A
:102A40002320DA68120A8DF82220DA68120C8DF839
:102A50002120DA6800294FEA12628DF8202014BF85
:102A60004FF08C624FF080621A60D8F80830D8F8C6
:102A700030200123A3401343C8F83030049A214684
:102A80004846FFF7D1F8002840F0538104A9484692
:102A9000FFF7F8FD04A8AFF3008004A8AFF30080AF
:102AA00004A8AFF3008072E7524E544D346A2B688D
:102AB00084EA0302524B13403BB109F58053B3F84B
:102AC000D43C9BB20F2B40F298814A4A136A2343AD
:102AD0001362BFF34F8F17B0BDE8F08F02F40011FF
:102AE0005868002914BF4FF0010C4FF0000C20F083
:102AF00060408DF817C005D1800C049004E004906C
:102B000001217EE70490012101208DF8190078E76A
:102B10008A067FF512AF85067FF50FAFD7F88020C4
:102B2000ADF81420C2F303418DF81B10D7F88410C0
:102B3000304C02F40010B04221F06041C2F300506A
:102B40008DF818004FEAD25212BF01203046890C8E
:102B50008DF817008DF81620049108A80022D4F8EB
:102B60008810D1400832202A00F8011DF7D12148F1
:102B700009A9D0F88C20DA400833202B01F8012D68
:102B8000F7D109F5005393F815398DF825306323F3
:102B90008DF824308368036B43F020030363019BAB
:102BA0005C0603D5036B43F040030363019B1806E7
:102BB00004D5104A136B43F08003136304A94846FD
:102BC000FFF760FD04A8AFF3008004A8AFF3008016
:102BD00004A8AFF3008004994846FEF7ABFF002835
:102BE0003FF4ABAE04A94846FFF7EEFCA5E600BFF4
:102BF0005045000000400A4008A400041C08FF1FC4
:102C0000BFFF070002F4001100295968ADF8142035
:102C1000C2F303428DF81B2009F5005214BF0120B6
:102C200000208DF8170092F815098DF824408DF8D2
:102C3000250098688DF81F0098684FEA10208DF8DD
:102C40001E0098684FEA10408DF81D0098684FEA02
:102C500010608DF81C00D8688DF82300D8684FEA02
:102C600010208DF82200D86821F0604108BF890C3F
:102C7000000C04918DF8210004F60221D86859F85F
:102C80002110000E8DF8200029B104A803920293B0
:102C90008847039A029BD2F808291AB104A8029324
:102CA0009047029B09F580520292B2F81E2B92B215
:102CB000002A00F0B180029BB3F81A1B1A2301F01E
:102CC0000F0103FB019101F5D9511231182210A80F
:102CD00000F058FA0AAB0DF1400C9E460393BCE895
:102CE0000F00AEE80F009CE803008EE803009DF99A
:102CF0003C305A1C00F09B809C427FF448AE039A03
:102D0000E1B24846FEF738F9029AB2F81A3B0133AD
:102D100003F01F03A2F81A3BB2F81E3B9BB2002B34
:102D20003FF435AEB2F81E3B013B9BB2A2F81E3B0E
:102D30002DE604A94846FFF747FCA7E602F4001178
:102D400000295968ADF81420C2F303428DF81B2006
:102D500009F5005214BF012000208DF8170092F8E9
:102D600015098DF824408DF8250098688DF81F000E
:102D700098684FEA10208DF81E0098684FEA1040BE
:102D80008DF81D0098684FEA10608DF81C00D86817
:102D90008DF82300D8684FEA10208DF82200D868FB
:102DA00021F0604108BF890C000C04918DF82100CE
:102DB00004F60221DB6859F821101B0E8DF8203033
:102DC00019B104A802928847029AD2F808390BB1C7
:102DD00004A8984709F580530293B3F81E3B9BB2B1
:102DE000002B7FF468AFD8F830200123A3401343B1
:102DF000C8F83030CBE52B68BBE509F5E650214635
:102E00001030FEF74FFEF16909F5EC5089B2183029
:102E1000FEF76CFE2C6058E6D8F830100122A24074
:102E20000A43C8F830204FF000621A60AFE5039AF9
:102E3000214666E72E482F4910B400F580522E4CEB
:102E40000023838200F5005CC382206003832B4C47
:102E5000A2F81A3BA2F81C3BA2F81E3BA2F8D03CF9
:102E6000A2F8D23CA2F8D43CA2F8983DA2F89A3D30
:102E7000A2F89C3D01F58052046001F50050204C01
:102E80008CF80037CCF80C398CF80137CCF81039B5
:102E90008B828CF81439CB820C600B83A2F81A3B1E
:102EA000A2F81C3BA2F81E3BA2F8D03CA2F8D23CF0
:102EB000A2F8D43CA2F8983DA2F89A3DA2F89C3D15
:102EC000104A80F8003783B080F801371268019209
:102ED0000D4C019AC0F80C39C0F8103980F814393B
:102EE0000A4B21601A6003B05DF8044B704700BFC5
:102EF0003C31FF1F2408FF1F645AFF1FD04400000D
:102F0000F4440000805AFF1F605AFF1F6C5AFF1FD5
:102F100038B52A4C2A4D01E001F068F8636A1B06B7
:102F2000FAD46B6A13F08003F6D172B625490A7899
:102F3000002A40D0A26BE06B0244206C0244606C1B
:102F40000244A06C0244E06C0244C2F34E0242F41C
:102F50000042E262A26DE06D0244206E0244606EA7
:102F60000244A06E0244E06E0244C2F34E0242F4F8
:102F700000422263AA6BE86B0244286C0244686C2E
:102F80000244A86C0244E86C0244C2F34E0242F4CC
:102F90000042EA62AA6DE86D0244286E0244686E3F
:102FA0000244A86E0244E86E0244C2F34E0242F4A8
:102FB00000422A630B7062B638BD00BF00B0034008
:102FC00000B00B407C5AFF1F2A4B2B4A6020E121A6
:102FD0001870597013782948082B34D00A2B20D048
:102FE0000C2B274B0CBF35215D2112228160C26062
:102FF0009960DA60234B21491B78214ACBB1012328
:103000000B621362204B1D491B781D4A012B13D9FB
:10301000042B1BD884234B6253621C4B01221A7071
:103020007047174B392113228160C2609960DA60C2
:10303000E0E70B621362E5E780234B625362134BB8
:1030400001221A7070470E4B2121ECE7082B06D89D
:1030500085234B6253620D4B01221A707047102B6F
:1030600094BF862387234B625362084B01221A7058
:10307000704700BF004007405007FF1F00B00340EB
:1030800000B00B407A5AFF1F5107FF1F7C5AFF1FE9
:10309000472829D8304B2DE9F0411E5CFF2E53D034
:1030A0002E4B1B7813BB340624D472B62C4C2D4DFA
:1030B00001272E60277062B672B62B68180609D4F5
:1030C0002378002BF5D062B600F090FF72B62B6823
:1030D0001906F5D5234A00231069237062B6224BE6
:1030E0001B781841BDE8F08100207047FFF710FF02
:1030F0003406DAD572B61D4D1D4C06F04008012786
:1031000006F03F06E368B8F1000F20D023F010036B
:10311000E36026602F7062B672B623681A0609D47F
:103120002B78002BEED062B600F060FF72B62368F9
:103130001B06F5D50E4A002310692B7062B60A4BA8
:103140001B781841BDE8F0810020BDE8F08143F014
:103150001003E360DDE700BF684500007C5AFF1FF5
:10316000785AFF1F00B003407B5AFF1F795AFF1F98
:1031700000B00B4008B5FDF72BFEFEF7F3FA00F0A8
:1031800035FFFAE701B441EA000313F003036FD1FE
:10319000403A41D351F8043B40F8043B51F8043B1A
:1031A00040F8043B51F8043B40F8043B51F8043B21
:1031B00040F8043B51F8043B40F8043B51F8043B11
:1031C00040F8043B51F8043B40F8043B51F8043B01
:1031D00040F8043B51F8043B40F8043B51F8043BF1
:1031E00040F8043B51F8043B40F8043B51F8043BE1
:1031F00040F8043B51F8043B40F8043B51F8043BD1
:1032000040F8043B51F8043B40F8043B51F8043BC0
:1032100040F8043B403ABDD2303211D351F8043B60
:1032200040F8043B51F8043B40F8043B51F8043BA0
:1032300040F8043B51F8043B40F8043B103AEDD20F
:103240000C3205D351F8043B40F8043B043AF9D260
:1032500004320AD0D2071CBF11F8013B00F8013B31
:1032600003D30B7803704B78437001BC704700BFE9
:103270000C2A4AD310F0030311D0C3F10403D21A6D
:10328000DB071CBF11F8013B00F8013B07D311F825
:10329000013B00F8013B11F8013B00F8013B11F044
:1032A00003033FF475AF30B4043AC91AC3F1040CF8
:1032B00051F8044B022B19D0032B0BD0240A51F8E0
:1032C000043B1D0644EA050440F8044B1C46043A3E
:1032D000F4D216E0240E51F8043B1D0244EA050422
:1032E00040F8044B1C46043AF4D20AE0240C51F88E
:1032F000043B1D0444EA050440F8044B1C46043A10
:10330000F4D20432B1EB0C0130BC043AA0D3013A40
:1033100011F8013B00F8013BF9D20B7803704B78B0
:1033200043708B78837001BC704700BF08B50F4CA9
:10333000636B58030DD4636B59050FD4636B1A0587
:1033400011D4636BDB04F3D500F012F8636B580300
:10335000F1D500F0B9F9636B5905EFD500F008F825
:10336000636B1A05EDD500F003F8EAE7008004402E
:1033700008B5FFF7DBFF00BF014B10221A80704732
:1033800000200540704700BF074BDA78802A01D043
:103390000020704705490648486400225A70DA78D0
:1033A000802AFCD00120704700E0074000800440E4
:1033B00000002822074BDA78012A01D0002070474C
:1033C00060225A70DA78802AFCD1034B034A5A648F
:1033D0000120704700E00740008004400000060222
:1033E000034B002210215A615A60186059617047DE
:1033F00000D00340704700BF4FF0E02C2DE9F041B2
:103400004FF00068CCF804814FF08058CCF804816C
:103410004FF00058CCF804812F4A3049304C314DE0
:10342000314E4FF08048CCF80481282300204EF61E
:10343000FF7E09274FF00048CCF804814860C1F8AE
:1034400008E0CB604B61CB614B62CB624B63CB63DB
:103450004B64D3605361D3615362D3625363D363CC
:1034600053640F606860C5F808E0EB606B612F6023
:103470006060C4F808E0E360636127605060C2F8F0
:1034800008E0D36053611760F16A41F40071F162A2
:10349000716802F5803241F00071716047F6FF7487
:1034A0000821506082B09460D36053611160FFF7CF
:1034B0008BFDFFF79FFF0D4C23680093009B132BA0
:1034C000FAD900F0BBFC23680193019BB3F5967F0A
:1034D000F9D302B0BDE8F08100900B4000800340BA
:1034E00000800B400090034000800440805AFF1F82
:1034F0003F2818D810B4124B53F8302092F880426D
:1035000034B1012381B982F800315DF8044B704772
:1035100003EBC0035B681A6859B142F003025DF81F
:10352000044B1A607047704782F880305DF8044B96
:10353000704722F002025DF8044B1A60704700BF2A
:10354000B04500003F2820D81B4A02EBC0030129E8
:103550005B680FD004291DD052F83000002280F89B
:10356000802299B1022922D003290DD14FF4817212
:103570001A60704752F830004FF4A27280F880123F
:103580001A601A6822F020021A6070474FF48072A5
:103590001A60704752F830104FF4A272012081F87F
:1035A00080021A601A6842F020021A60704740F2E6
:1035B00003121A60704700BFB045000010B472B625
:1035C0001A4A1B4C042312F8011B090743F0010C93
:1035D00005D554F8331069B154F83C10C9B104331F
:1035E000142BF0D162B6134B00221A705DF8044B15
:1035F00000F09ABC0F4904EBC302083050600A780F
:103600000D4844F83300013A0A7062B65DF8044B85
:103610007047084A094904EBCC0308305860137816
:1036200044F83C10013B137062B6EFE70848000015
:103630000000FF1F6C5BFF1F88004000C8004000B7
:10364000421E032A0ED81C4B400140F0100010B45B
:10365000034472B6194CA05C03281DD8DFE800F0C3
:103660001416031970470520A05413F0080F08889A
:1036700014BFC8228822083142EA004259601A6009
:1036800062B65DF8044B70470320EDE70833022073
:10369000EAE708330420E7E7094B53F8220038B182
:1036A000084B53F82200416043F8221062B6E8E765
:1036B00043F82210034BF7E70000FF1F5C5BFF1F7E
:1036C0003C5BFF1F4C5BFF1F2DE9F04FDFF80CA3A5
:1036D000DFF80CB385B03DE0B04D9E0805EBC607A2
:1036E000013A796813F00803D4B2A1F1080040F060
:1036F000B88055F836204FEA124C120C21F808CC4D
:1037000000F0A78021F8063C41F8043CA44B53F894
:103710002420002A00F00182A24B53F8242050609C
:1037200043F82400A04B33F81420944423F814C029
:1037300000F0DAFB002800F0E98117F0080F9B4B3E
:1037400000F1080018BF5B46786045F83630082362
:103750008AF880309AF880305907DCB21BD5944B38
:103760001B78ABB193490A7802F0FF032AB1013B01
:10377000DBB20B70002B00F046838F490A7802F011
:10378000FF032AB1013BDBB20B70002B00F0EB8191
:1037900004238AF8803014F0080200F0CC819AF8F3
:1037A0009020D3B2120997D1DFF8F0919B0809EB72
:1037B000C30459F833006468C0F3830009287CD03F
:1037C0000FD80138012808D87C4A158842F2210018
:1037D000854200F0FB8149F833B001238AF8943028
:1037E000B5E70D28F9D1D4E90007754D49F833B094
:1037F000724E744CC9F8102083B240F2816CC9F843
:1038000018202A6063454FF00102C6E900072270C4
:1038100000F2FF80B3F5D06F80F0CB82B3F5817FEB
:1038200000F0268240F2DE8040F2023293427BD1E9
:1038300007F07F07042F00F20881020C40F0058199
:10384000614911F8273043F0020301F8273013468D
:1038500070E017F0080F554B18BF5B4645F836303F
:1038600075E700F061FB5949594A51F82430002BA3
:1038700000F05781586841F82400115D03F10800F9
:103880007860032905D8DFE801F0120F1502042142
:1038900011551A8817F0080F14BFC823882343EA6C
:1038A000024345F8363052E702211155F1E7032172
:1038B0001155EEE705211155EBE7414D2A683AB362
:1038C0004449404C0F88444894F800E00678402F63
:1038D0003B4628BF4023BEF1000F8EF0010E84F856
:1038E00000E046F0020486F00106067009EBC40011
:1038F000426014BFC820882040EA03401A44FB1AE3
:103900009BB249F834000B80002B00F036812A600E
:103910002A4B1A88B2F5A06F7FF45FAF9A788AF8C5
:10392000982000225A7058E7B3F5A06F40F08D80C0
:1039300000221346B6F806C02748944528BF94468F
:1039400067460278402F28BF402742F0020E3E040F
:1039500009EBCE0846F0C806C8F8043049F83E60C6
:1039600000263B442670BCEB070782F00106067078
:1039700040F01181BCF13F0F4FF0010509D946F02D
:103980000206027009EBC60225705360882349F8CD
:10399000363001238AF894301FE700BF0000FF1F74
:1039A000145BFF1F245BFF1F645BFF1F8800400048
:1039B000605BFF1F615BFF1F8C5BFF1F345BFF1FA2
:1039C000085BFF1F055BFF1FC02007403C5BFF1F1C
:1039D0005C5BFF1F065BFF1F045BFF1F00200740AF
:1039E000C8004000802B00F08B81822B2DD107F086
:1039F0007F07042F29D8A74A00231380A64B13F86A
:103A000027309F0740F1FC8101231370A14B022254
:103A100090E742F2210C6345BBD01DD942F221222E
:103A200093420DD1BFB2002F82D19C4B1A689C4BA0
:103A30001A609C4BC0F3074000221870134679E7C8
:103A400042F2213293423FF473AF0F238AF8C03021
:103A500001238AF89430C0E6B3F5086F00F04A817C
:103A6000B3F5106FF1D1904BC0F3074004251870E7
:103A700059F835301A0606D40135142D0CD059F8F2
:103A800035301A06F8D509EBC503013558680838F2
:103A900000F04AFA142DF2D1844A854B0292854AED
:103AA0000192854E854ADFF84882039400920025F2
:103AB0001C4656F8047B2FB138467F6800F034FA74
:103AC000002FF9D1009BD8F8007043F8045B46F84A
:103AD000045C00932FB138467F6800F025FA002F70
:103AE000F9D1029B48F8045B43F8045B0293019B05
:103AF00023F8025B01932378023B032B00F2098138
:103B0000DFE813F03F0104013F0104016C4A45F86E
:103B1000360013780133137019E643F82400674B1D
:103B2000FEE5115D022926D07FF611AE03291DD1D5
:103B3000012313550BE6E0076ED4210621D4A2071A
:103B400008D5604B93F888200221D2B283F88820F0
:103B500083F88010E30603D55A4B102283F88020A7
:103B600005B0BDE8F08F00F01DFA11E617F0080F60
:103B700014BF032302231355E9E53F2F98BF00220A
:103B8000C5E6504B80220D2183F8C01083F88020B9
:103B9000A207DFD5D5E746F002060270402F09EBF9
:103BA000C6003A4628BF402243601004134440F048
:103BB00088000121BA1A49F83600217055D02B60CF
:103BC000414B1A8001238AF8943006E692885AB94C
:103BD0003E4AE51D14F8011B02F8011FAC42F9D161
:103BE0003B4A1268862A3CD03A4C3B4825780278FA
:103BF000002D85F00105257042F0020482F00102DB
:103C0000027009EBC4024FF00000506014BFC822DC
:103C1000882249F83420DEE52A4B2F482F49304CC2
:103C2000022583F8945002702E480C602E4D486097
:103C30008C600D24CD60FF200A618A6183F8C0404A
:103C400001219F2483F8880083F8800083F898205E
:103C500083F88C0083F8844083F8941005B0BDE8A5
:103C6000F08F224A0F201070BEE73F2FA7D890E6B2
:103C700007F07F07042F3FF6E8AE000C7FF4E5AEB7
:103C8000054A12F8273023F0020302F827300022F9
:103C900013464FE60C5BFF1FC0200740805AFF1FF2
:103CA000885BFF1F845BFF1F605BFF1F4C5BFF1F78
:103CB0005C5BFF1F645BFF1F145BFF1F245BFF1F28
:103CC0006C5BFF1F00200740065BFF1F7B5BFF1F35
:103CD0007C5BFF1F055BFF1F045BFF1F0000FF1FD6
:103CE00088004000845AFF1FC45AFF1F615BFF1FFA
:103CF0003C5BFF1F484B49491B780B700B4619E68C
:103D0000464A00231380454B022213E64FF001037D
:103D10002370434BB34204F101047FF4CAAE414E19
:103D2000039CDFF81481404F00233370042518F8FA
:103D3000013B3E4AAB541B0725D445F0020145F038
:103D4000030204350023142D49F8313049F832308C
:103D5000EDD1374F25783A7842F0020009EBC00CDC
:103D600085F00106CCF80430002D4DD1882382F077
:103D7000010226703A7049F8303001238AF89430F5
:103D80002BE52570C5E700F0AFF8002832D009EB2D
:103D9000C5030830586049F8357000F0A5F808B33D
:103DA00045F0010309EBC3020830506049F833B015
:103DB000C3E7204A5368002B3FF447AE000CBFB264
:103DC00004E013690C32002B3FF43FAE11888142AE
:103DD000F7D15188B942F4D1000A03280CBF1A78F0
:103DE0001289A7E533780133337045F0010349F8B0
:103DF0003300A2E7337849F8350001333370CCE75C
:103E0000064B022296E500BE2670C82382F001060A
:103E10003E7049F83030BCE5605BFF1F0C5BFF1F54
:103E2000245BFF1F6C5BFF1F88004000C020074021
:103E3000045BFF1FB44700000848000010B500F005
:103E40007BF90023234A194642F8331002EBC300E2
:103E50000133142B4160F7D11F48204C436B43F4CE
:103E600080234363D4F8003800F5283000F58070D3
:103E700043F04073C4F80038032480F84440184BE2
:103E8000A02480F84040C2F3072483F89C40C2F38A
:103E90000744120E83F8B0404FF0FF0C83F8B420B3
:103EA000012283F880C00F4C83F888C083F810C0CB
:103EB00083F8942001704FF0E02183F884204FF0C4
:103EC000700C4FF40012102384F835C0C1F804219F
:103ED000037210BD0000FF1F0080044000D00040AE
:103EE0000020074000E400E072B60D490B68B3FA09
:103EF00083F00B2810DC4FF00042C24023EA02039B
:103F00000B6062B6074A00EBC000C10002EBC000C4
:103F1000002353504360704762B60020704700BFD3
:103F20005407FF1FD003FF1F0E4BC31AB3F5587F72
:103F300010D20D4A127872B972B60C4A0C49A2FB23
:103F4000032308684FF000421B0922FA03F30343DE
:103F50000B6062B67047074A1278002AECD0FFF770
:103F60002DBB00BFD003FF1F6C5BFF1F398EE338F2
:103F70005407FF1F605BFF1F084B094A1B6810B501
:103F800094881BB11A885B88D31A1C440CB1204654
:103F900010BD00F02BF8204610BD00BF705BFF1F66
:103FA000645BFF1F38B50E4B1B7853B90D4C21686D
:103FB00041B103F0FF054B880B800420FFF740FB65
:103FC000256038BDFFF790FF014620B1BDE83840BD
:103FD0000420FFF735BB044B01221A7038BD00BF27
:103FE000745BFF1F785BFF1F8C5BFF1F2DE9F8439D
:103FF000324E337863B1324F3A784AB90122D90749
:104000003A7043D49A0726D400225B073A7001D451
:10401000BDE8F8832B4B1A68002AF9D0EFF305822C
:10402000002AF5D1EFF3108572B6186800283AD04F
:10403000254C2178002936D142691A60012323706A
:10404000002A37D0916105B962B6002583684577AB
:1040500098472570DCE7DFF87C8098F80020002A7C
:10406000D2D00025DFF870902B4659F82340236802
:1040700020461B690135984708B12369984798F88D
:104080000020EBB29A42F0D83378BDE7FFF774FF17
:1040900068B90E4B1B780BB93378B3E7337803F06C
:1040A000FE033370AEE7002DB2D162B6B0E700F088
:1040B00041F8EEE7064B1A60C5E700BF5807FF1F3F
:1040C0008D5BFF1F905BFF1F9C5BFF1FB0470000D5
:1040D000A05BFF1FBC5BFF1FA45BFF1F70B5EFF36E
:1040E000108272B60C4C206880B10C4E00254369DA
:1040F000236073B19D6102B962B6836845779847C2
:10410000EFF3108272B620680028F0D102B962B6CF
:1041100070BD3360EFE700BF985BFF1F945BFF1F2C
:10412000FFF7DCBF024A136801331360704700BF1A
:10413000805AFF1F704700BF10B584B072B6FFF7FA
:1041400023F9174A174951607020802310701370AB
:1041500013781B06FCD5D468FFF72CF962B6124B16
:104160009C423CBF04EB8404640020460F4C01A930
:104170000A2200F01DF801A92046002311F8012BA6
:1041800001333AB10A2B20F8022FF7D116232370FE
:1041900004B010BD5B00DBB2237004B010BD00BFE3
:1041A000000002400000074180969800E807FF1FCA
:1041B00001F1FF3C70B56546002401E07046013412
:1041C000B0FBF2FE02FB1E03092B03F130068ABF8F
:1041D0003733F3B2DBB2904205F8013FEED2631CF5
:1041E0000022CA54C8187CB162461CF8015F10F85E
:1041F00001ED8CF800E0A1EB0C030232013B521AF6
:1042000023449A420570EFDB084670BD88420DD901
:104210008B1883420AD900EB020CBAB1624613F83C
:1042200001CD02F801CD9942F9D170470F2A0ED87D
:10423000034602F1FF3C4AB10CF1010C013B8C44F6
:1042400011F8012B03F8012F6145F9D1704740EABD
:1042500001039B0750D1A2F1100370B501F1200CAE
:1042600023F00F0501F1100E00F11004AC441B09FE
:104270005EF8105C44F8105C5EF80C5C44F80C5C72
:104280005EF8085C44F8085C5EF8045C44F8045C82
:104290000EF1100EE64504F11004E9D1013312F0DD
:1042A0000C0F01EB031102F00F0400EB031327D0F6
:1042B000043C24F003064FEA940C1E441C1F8E4657
:1042C0005EF8045B44F8045FB442F9D10CF10104D8
:1042D00002F0030203EB840301EB840102F1FF3CD3
:1042E0004AB10CF1010C013B8C4411F8012B03F88D
:1042F000012F6145F9D170BD02F1FF3C03469BE7F8
:104300002246EBE7830730B548D0541E002A3FD041
:10431000CAB2034601E0013C3AD303F8012B9D07E2
:10432000F9D1032C2DD9CDB245EA05250F2C45EA4C
:10433000054536D9A4F1100222F00F0C03F1200E2E
:10434000E6444FEA121C03F1100242E9045542E927
:10435000025510327245F8D10CF1010214F00C0F25
:1043600003EB021204F00F0C13D0ACF1040323F0A2
:1043700003030433134442F8045B9342FBD10CF073
:1043800003042CB1C9B21C4403F8011B9C42FBD1AD
:1043900030BD64461346002CF4D1F9E703461446B9
:1043A000BFE71A46A446E0E770B50D4E0D4D761BEB
:1043B000B61006D0002455F8043B01349847A642B5
:1043C000F9D1094E094D761B00F020FAB61006D03F
:1043D000002455F8043B01349847A642F9D170BD3A
:1043E0001848000018480000244800001848000041
:1043F000704700BF704700BF024B13B1024800F086
:1044000005B8704700000000194400000023014671
:104410001A46184600F014B838B5074D074C2C1B47
:10442000A41005D0013C55F8043D9847002CF9D163
:10443000BDE8384000F0F6B90000000000000000C0
:104440002DE9F047DFF87CA00646DAF80000984630
:104450000F469146FFF7CCFF184B1C6824B36568E4
:104460001F2D24DC5EB96B1C0235DAF80000636096
:1044700044F82570FFF7BEFF0020BDE8F08704EB8D
:1044800085010123C1F88890D4F88821AB401A43F4
:10449000022EC4F88821C1F80881E4D1D4F88C2117
:1044A0001A43C4F88C21DEE7054C1C60D7E7DAF824
:1044B0000000FFF79FFF4FF0FF30DEE7C45BFF1FF8
:1044C000C85BFF1F0008FF1F000000000000000085
:1044D0000529000085040000F90F00001107000005
:1044E0001D1600001507000019070000000000005D
:1044F0000000000099200000C5050000991200008E
:1045000005070000D5140000090700000D07000092
:10451000000001010001010101020101020201028A
:10452000030102030202040202050202050302065D
:104530000302070302070403070403070504070532
:10454000040706050706060706060707070707000C
:104550000000000000000000000000080000000053
:104560000000000000000000050E08090D0C060701
:104570000F0403938E8F050E08090D0C06070F0418
:10458000FFFFFFFFFFFFFF8E8F111284858687914B
:10459000FFFFFFFFFFFFFFFFFF8A8BFFFFFFFFFF14
:1045A000FFFFFFFFFFFFFFFF0393179701811A92A1
:1045B0004008FE4340A004404408FE4344A0044099
:1045C0000018FE4300C004403000FE433090044019
:1045D0003400FE43349004401C18FE431CC00440C9
:1045E0001018FE4310C004400818FE4308C00440E1
:1045F0000C18FE430CC004400C10FE430CB00440E9
:104600001010FE4310B004401810FE4318B00440D0
:104610001C10FE431CB004401410FE4314B00440B0
:104620000418FE4304C004400010FE4300B00440E0
:104630000008FE4300A004400408FE4304A0044018
:104640000C08FE430CA004400808FE4308A00440E8
:104650001418FE4314C004401818FE4318C0044048
:104660000410FE4304B004400810FE4308B00440A8
:104670006820FE4368D004401400FE4314900440B8
:104680003800FE43389004403C00FE433C90044018
:104690004000FE43409004404808FE4348A00440C8
:1046A0004C08FE434CA004402808FE4328A00440C8
:1046B0002C08FE432CA004406020FE4360D0044040
:1046C0006420FE4364D004402010FE4320B0044028
:1046D0002410FE4324B004402810FE4328B00440B8
:1046E0002C10FE432CB004404400FE434490044090
:1046F0007000FE43709004407400FE4374900440C8
:104700006800FE43689004405008FE4350A00440F7
:104710005808FE4358A004405C08FE435CA00440D7
:104720005408FE4354A004402018FE4320C0044017
:104730002418FE4324C004401008FE4310A0044087
:104740001408FE4314A004403818FE4338C0044047
:104750003418FE4334C004403018FE4330C00440D7
:104760003C18FE433CC004402C18FE432CC00440BF
:104770002820FE4328D004402C20FE432CD00440A7
:104780000020FE4300D004400420FE4304D0044037
:104790000820FE4308D004400C20FE430CD0044007
:1047A0001020FE4310D004401420FE4314D00440D7
:1047B00000FFFFFF00010000A007FF1F1200000024
:1047C000000200005C07FF1F430000000003000020
:1047D000B407FF1F0000000001030904B807FF1F12
:1047E0000000000002030904D007FF1F00000000C2
:1047F00003030904E807FF1F000000000000000099
:10480000000000000000000000151915F8B500BFF9
:10481000F8BC08BC9E467047F94300003504000010
:04482000352E000031
:04482400F8B500BF24
:10482800010101004B010000000000000000000031
:104838000000000800000000000000000000000068
:104848000A040000FFFFFFFF010000000902430007
:10485800020100C03209040000010202010005241F
:1048680000100105240101010424020605240600A4
:10487800010705820310004009040100020A000034
:1048880000070503024000000705840240000000FD
:104898001201100102000040C016830477020102D1
:1048A80003010000040309041803540065006500AF
:1048B8006E00730079006400750069006E006F0077
:1048C8001603550053004200200053006500720093
:1048D800690061006C0000000C030000000000008B
:1048E80000000000000000000000000000000000C0
:0448F800C05BFF1F83
:00000001FF
